:4000000000800020110000008D0500008D05000010B500F013FD00F0DBFAC04670B512221A4B1A6001F0DEFE194802F031F8012001F0F8FE302001F0EFFD164A164B1A606A
:40004000164C8025ED052560154A116802230B431360144A144B1A600022144B1A60144A136808218B431360FA20C00001F086FE104801F0C7FD802212060F4B1A60802243
:4000800012030E4B1A60256070BDC04630001040001BB7000600008004010B400C020B4078002E406A2D00007C002E4064F02E406CF02E40DC05000008010B4000010B40AB
:4000C00010B572B600221B4B1A6000240FE01A486200131959000B00411889881A5AC31858880004104300F04BFA0134E4B2012CEDD9EE221206114B1A6099231B04104A94
:400100001360104A1360104A117806230B43DBB2137002220D4B1A600D4A0E4B1A6021220D4B1A600D4A0E4B1A60FFF777FF00F017FA10BD6CF02E4090730100000002406C
:4001400000500F4010500F4000700F40000004403000D8000800044000010440060003000801044010B5064C2378002B07D1054B002B02D0044800E000BF0123237010BDCE
:40018000201A002000000000446F0100084B10B5002B03D00749084800E000BF07480368002B00D110BD064B002BFBD09847F9E700000000241A0020446F01000814002005
:4001C0000000000010B584B00C004F2800D99AE080004E4B1B589F46002001F071F84C4BD968986805F0FEFE8DE04A4802F014FB89E009786278A378E0780090464802F035
:400200008FFA80E0454802F007FB7CE00968444802F086FA77E0434802F0FEFA73E0424802F0FAFA002420000FF062FA2378042B01D10FF01BFC012000F08AFF0028FAD11C
:4002400061E00978394802F06BFA5CE0384B1978384802F065FA6388062B0FD902A906230B804B8000238B806433CB80324B18780DF058FD0100314802F052FA012000F05D
:40028000ADFA40E02E4802F0C7FA002001F018F8002838D001002B4802F042FA33E00978294802F03DFA2EE00978284802F038FA29E0274B1B78042B25D1264802F0ACFAD1
:4002C000002000F08BFA002000F04EFA002000F0DDF918E00222164802F011FA13E00022134B1A700FE01C4802F096FA0BE0002010F00CFF104B187800210FF041FA02E0A4
:40030000164802F089FA04B010BDC046486F0100601400209C700100B8700100FC7001003C7101006871010090710100A0710100A42B0020C0710100F02C0020E871010021
:4003400024720100487201006C72010090720100EA2C0020BC720100D8720100F872010000B585B00A4A13881B0492881343039303AB009304236A469380064B5B8813813D
:40038000002300220021684612F051F905B000BD487701003477010070B584B000223C4B1A603C4C200002F037FA200002F034FA394802F031FA394802F02EFA384802F0CD
:4003C0002BFA200002F028FA200002F025FA62B6012000F003FA012000F0C6F9012000F055F9304800F050FE2F4B188803F098FDFFF7B6FF00F068F80E220021684602F0DA
:4004000087F942236A46137012335370013B93700433D37080239B02244A13601A78244C22705A7862709A78A270DA78E2701A7922715B796371200003F09CFA20236A4658
:400440001371E1780A091B4B9A5C684642710F2001405A5C69468A713A22CA7121790D095D5D6E4635720140595C7172B27262791109595CF17202409B5C3373684600F01C
:4004800075FF03F073FA00F03DF800F087FDF8E7AC2B00208C710100107301004C73010060730100C501000048770100A82B00207814002088700100002300E001339342B9
:4004C000FCDB10007047C04610B501F0F9FC0C4800F032F90121012001F01CFD0121012001F034FD2021012001F068FD012001F0BFFD8020400001F043FD01F0D3FC10BD68
:400500004905000010B50E4B1B78002B13D10D4A1368013B1360002B10D1FA239B001360107901235840C0B2107100F057F9012001F050FB02E0002000F050F910BDC04612
:40054000A42B00200C14002010B501F061FD430505D5FFF7D7FF8020C00001F063FD10BD0323044A1360044A13600022034B1A607047C0463000304030003140000E3F40AF
:4005800010B50A00002102F0C3F810BD10B502F07BF803680C2B00D1FEE7FEE710B50300094A1068C318094A9A1A8021C9008A4202DC054A136005E002F066F80C23036058
:4005C0000120404210BDC04614140020002D002070B50F4E0F4D13E029686B68AC68002202E001C901C30432A242FAD1E868002202E0002102C304328242FAD11035013EAD
:40060000002EE9D102F046F8FFF7C6FEFEE7C046010000005078010010B5114A136801218B43136000230AE0032B03D89A000D49505800E00C4899000C4A885001332F2BFE
:40064000F2D9FFF73DFD0A4B1B68002B02D10022074B1A60024A116801230B43136010BD00001040000000008D05000000000020C0000020034A1168034B0B40C0031843E5
:400680001060704708010440FF7FFCFF04490A68D2B220239A434001184010430860704700010440024B1868400901231840704704010440024B18684009012318407047BF
:4006C00000010440034A136883430840184310607047C0460C010440034A10682023184010604009C0B2704710010440014B18667047C0460000002010B5040001F0D1FC41
:40070000044A1368C0218B43A4011C43146001F0CCFC10BD08E400E080225200014B1A607047C04600E100E080225200014B1A607047C04680E100E010B50400FFF7F4FFD5
:400740002000FFF7D3FF0320FFF7D6FFFFF7E4FF10BDC046034A136838218B43C0001843106070470800044004490A68D2B202239A434000184010430860704700000440E7
:40078000024B1868400801231840704704000440024B1868400801231840704700000440034A136883430840184310607047C0460C000440034A1068022318401060400875
:4007C000C0B2704710000440034A136807218B43184310607047C04608010440044A1368DBB201218B430840184310607047C04600010440024B1B68012018407047C04688
:4008000004010440024B1B68012018407047C04600010440034A136883430840184310607047C0460C010440024A1068012318401060704710010440002306E04218013A1B
:4008400012789B189BB2013989B20029F6D1584280B2704730B5002307E01C182478E4B2CD5CAC4205D101339BB29342F5D3002000E0022030BDC0460047C04610B58022DD
:40088000024B1A6001F09AF910BDC046C0000020F0B583B00D006B469E1DDA8001230B7048701400AA70130ACB70171DB9B22800FFF7C2FFE855631D000AE854A31D172238
:4008C000EA540734A1B296233200280001F034F803B0F0BD70B505000E001400002802D0002001F069F9002005E0013CAB19E3181B781818C0B2002CF7D170BD10B50C2893
:4009000063D88000404B1B589F460B06591A0B023E4A9446634401225CE00B06591A0B023B4A94466344042254E00B06591A0B02384A9446634402224CE00B06591A0B02BA
:40094000354A94466344042244E00B06591A0B02324A9446634401223CE00B06591A0B022F4A94466344012234E00B06591A0B022C4A9446634402222CE00B06591A0B0255
:40098000294A94466344022224E00B06591A0B02264A9446634402221CE00B06591A0B02234A94466344042214E00B06591A0B02204A9446634401220CE00B06591A0B02C4
:4009C0001D4A94466344042204E0002001F0F4F802220023012A02D11878C0B200E00020022A03D11978587800020843042A09D11A785878000210439A7812041043DB7886
:400A00001B06184310BDC0469C730100C0FF0300C1FF0300C5FF0300C9FF0300D0FF0300D1FF0300D6FF0300D2FF0300D4FF0300D8FF0300DCFF0300E0FF030010B50D4B62
:400A40001B68DB0602D400220B4B1A600A4B1B68802B0ED10022084B1A6000210220FFF74DFF002805D000210220FFF747FFFFF703FF10BD00030B40C000002070B50500DB
:400A800001000320FFF73AFF441C240229000420FFF734FF241829000320FFF72FFF421C12020023002608E01078411EC9B2FD2900D801261B18DBB20132A242F4D35B42D6
:400AC000DCB229000120FFF719FF844203D1002E03D1062002E0062000E0002070BDC046F0B55F4656464D464446F0B4CC4CA544050000F009FF62B600239A4698460A2447
:400B00000027002D01D1FF2300E02B00C54A02A98C4662449621490052A800F041FF002D01D0013CE4B2002C01D00028E9D1002800D01FE2BB4B02AA944663441B88062B56
:400B400024D952AA1278012A22D152A9CA78120289780A431700110007329A421AD896235B009A4218D87A1D52AB9E5C3202381D1E5C164306315B5C172B0FD181B252A8FF
:400B8000FFF75AFE86420BD100260AE0042608E0042606E0032604E0032602E0042600E00826002E00D088E152AB1A7993465A781300313BD9B2142900D94EE18B009A4962
:400BC000CB589F464346012B00D078E1002F00D078E10020FFF752FF4342434152AA13710122C0E14346012B00D06EE1032F04D00423FF339F4200D06AE152AA93791B02AF
:400C0000527913439946032F08D0FA1E4821FF3102AB9C46614407A801F071FD5B46012B00D958E1580248440002804B994500D90A26002E00D051E18022520007A9FFF774
:400C400009FE060000228EE14346012B00D047E1012F00D047E15B46012B00D946E1744B1B681B685A0CD2B2934503D11B0ADB05DB0D05E0934501D9002301E080239B0013
:400C800052AA13711B0A5371FF239371FE3BD371042268E1342A0ED14346012B00D028E1032F00D028E1CC32002107A801F030FD80235B009A464346012B00D01FE1022F63
:400CC00000D81FE107A85044FA1E4821FF3102AB9C46614401F013FD3B0053449BB20422FF32934200D010E152AA93791B02527913439A464D4B9A4500D90A26002E00D043
:400D00000AE15B46580280B2504480B2484B1B681A68130A9BB2FF21114201D001339BB2834200D9FCE007A900F0AAFE002800D1FDE000239A4680277F000A26002212E108
:400D40004346012B00D113E1042600220BE14346012B00D0F1E05346FB1896225200934200D9EDE007A850443A0053A901F0C7FC5346FB189BB29A460022F4E0002F00D03F
:400D8000E1E004AA2B4B03CB03C253AA04AB03CB03C200239A46013398460822E3E04346012B00D0D2E0032F00D0D2E052AA93791B025279134399465B46590249440902D6
:400DC0001A4B994500D90A26002E00D0C4E0802252000020FFF77EFD030001905A46520292B24A4492B25946012913D112498A4210D100210520FFF781FDC0B2019B1B1A30
:400E0000DBB2994600210620FFF778FDC3B24A46D31ADBB25B4252AA13710122A3E0C04684FDFFFF6E020000D0730100FF0100001814002024740100FF0300000020FFF71C
:400E40001DFE002802D18022524B1A6000F05EFD00F0B4FE0426002285E04F4B1E68002E7CD04346012B7CD102AB1A705F8053AB03930C22002104A801F04AFC04AB9B46FD
:400E800053AA0692190002A8B0475B469A882623FF339A4203D953AB0699994207D0069B002B01D1002A05D1049BDEB25BE00E26002258E00E26002255E0002253E00426FE
:400EC000002250E0042600224DE0042600224AE00426002247E00926002244E0002242E0042600223FE0042600223CE00426002239E00426002236E00426002233E0042662
:400F0000002230E0042600222DE000239A4680277F000326002226E080277F00002222E000239A4680277F000A2600221BE000239A4680277F00002215E00426002212E06E
:400F4000032600220FE0042600220CE00426002209E00426002206E0002204E00526002201E00526002252A93000FFF791FC01E000239A46002D00D1C3E54346012B00D159
:400F8000BFE59F239B009D443CBC90469946A246AB46F0BDC00000203C1A002010B50020FFF76CFD002801D0062200E00022074B1B68402B01D0002A05D00022034B1A6065
:400FC0000020FFF78DFDFFF759FC10BDC000002070B5002905D11B49CE7F00230024002511E018492031CE7FF7E7CC5C002C0ED00133DBB2CA5C083AD2B2012A02D9E3186A
:40100000DBB200E00125B34201D2002DEDD0002D16D0E418E4B20133DBB21A0002E08D540132D2B2A24209D2D51A455D002DF6D104E08B18002018700132D2B2A242F8D398
:4010400070BDC0462014002010B500F0D9FB00F0D9FC10BD10B50024064B1C70064B1C70064B1C70FFF7F0FF054B1C70054B1C7010BDC046F32C0020EC2C0020F22C002029
:40108000D82C0020E02C002030B591B00400142220490BA801F033FB1F4B1B78002B04D1FFF7D8FF01221C4B1A70002C2FD01B4B1C6008AC05AD099506AB08930122228144
:4010C000FA321A805A80F73A1A7102F0C7FF08232B7016216944200002F0ECFA002817D10F4B02930F4B0193052300930BAB0E4A0E490F4802F052FB002809D101220D4B1A
:401100001A708F3221210C4811F048FA00E0012011B030BD2C740100401A0020DC2C0020790200000086010030120000C8000020FD140000EA2C00204074010010B502F0BA
:40114000D7FB0022014B1A7010BDC046EA2C002010B588B00400394B1B78DB070BD50BF0BFFC00280AD1354A137801218B4313709B0702D402E0002000E02820002801D0F1
:40118000002C1DD02D4B1B789B0719D52C4B1B78042B15D85A00D31859009E239B009C466144284BC91801312300062226480BF07DFC002804D1214A137802218B431370BA
:4011C000002801D0002C36D01C4B1B780C221A4231D01B0712D512320021684601F098FA23001E22194968460BF060FC002822D1124A137808218B4313701CE00622002115
:40120000684601F085FA124B5B785A00D31859009E239B009C4661440A4BC91801312300062268460BF042FC002804D1034A137804218B43137008B010BDC046D82C00204B
:40124000F02C002000860100E42C002079880100401A002030B585B00500174B1C78002C26D10722002102A801F052FA062202A9280001F035FA002804D108231C430E4B9B
:401280001C700FE029006B46D81D0EF08AFA002808D1094A117804230B4313706B46DA79064B5A70002804D128000EF09DFB00E0022005B030BDC046D82C0020401A00206B
:4012C00010B5022833D81E4B1B78042B31D11D4B1B785B0730D400280BD11B4B1A004032002111822022596C0A805B6C10325A800EE001280CD1144B1A004032962111821F
:40130000C822D200596C0A805B6C8022D2015A800E4B18700C4840300EF032FD00280DD1084A117804230B43DBB2137006E0012004E00420FF3001E00420FF3010BDC0460F
:40134000EA2C0020F32C002020140020F22C002010B50EF0C5FD034A117808230B43DBB2137010BDF32C00207047C04670B5041E26D0144B5B88013B134D9A00D01881009B
:40138000691809694868D3189A00AA18117B002302E0C2540133DBB28B4202D2E25C002AF7D18B4202D2C31800221A7000212000FFF70EFE01212000FFF70AFE002000E05F
:4013C000012070BD3C7701004074010010B5002819D00E4B5B88013B9A00D3189A000C4B9A1813695C681978002302E0C2540133DBB28B4202D2E25C002AF7D1C318002245
:401400001A70002000E0012010BDC0463C7701004074010003784078000218437047C0460170090A4170704770B5050083890B2B1FD1043035332A00002111F0F8F8041E36
:4014400011D16868FFF7E6FF830706D50A4B1B68290082204000984705E0074B1B6829000620FF309847054A137801218B43137000E00024200070BDDC2C0020F32C00209C
:40148000024B00225A701A707047C046F02C002010B582B00400FFF7C7FF0E4B1B78DB0702D5200000F0AEF90A4B1B78DB070ED4002809D001A912238B70A3890B80C870E7
:4014C00020680FF0D3FD02E020680FF061FE02B010BDC046F32C00208379002B07D000200BE0C25C002A07D10133DBB200E00023052BF6D9002000E001207047F0B583B06D
:4015000004000D00AA4A117801230B43DBB21370282800D1D8E016D8212800D1ABE009D8052800D18EE0062800D18FE0012800D02DE120E0262800D1CAE000D9C0E02428DF
:4015400000D1B9E023E14C2800D10BE109D8422800D1FCE0432800D1FCE0412800D016E1DEE0502800D109E1FA2800D10AE14F2800D00CE1FAE001AE082737700023737024
:40158000300002F049FA377001237370300002F043FA884B1E683000FFF79EFF00280CD0300002F0E7F9834E00213068FFF7DCFE30680121FFF7D8FE2AE07F4B1F787F4B82
:4015C00018788001FC263601020032403F21394011437B4B1B781B03F822520213401943784B1B785B04FE22120413400B43764E33701A0A72701B0CB370300002F0BAF934
:4016000000213000FFF7B0FE01213000FFF7ACFE03200EF059FA01AE7F2333700023737030000EF06FFA694B33803200FB2100200EF018F83188FB200EF07EFA0422644BBC
:401640001A70A4E02A78634B1A70A0E02B78002B00D09CE06B78002B07D15F4B0822DA8088329A805D4A1A606B60514A137801218B4313708BE04E4B1B789B0600D586E008
:40168000574B1B78102B02D10522554BDA70554B187853490EF036FB01AB1880002804D0514B1B6801A936209847414A117801230B43DBB213706AE06A784C4B1A7066E074
:4016C0000222434B1A7062E00422414B1A705EE03F4B1B78022B5AD0354A1278D20756D5334A1278520708D50322394B1A70304A137804218B43137049E02D4A1278120743
:4017000008D50422324B1A70294A137808218B4313703CE0032B3AD104222D4B1A7036E0304E02222900300000F0E9FF0022294B1A7033785A00D21853002D49C9182D4B90
:401740009C46614406222C4800F0D9FF1FE0FFF797FE1CE06988162900D9172128880FF08FFC14E02800FFF793FE10E0104B1B78DB070CD5280000F087F808E0280000F0A2
:401780009BF804E01D4A117801230B431370084B1A7811231A4209D0054A137801218B431370114B1B6829002000984703B0F0BDF32C0020741400207CF2FF0F7DF2FF0FEB
:4017C0007BF2FF0F78F2FF0F7814002048080000EA2C0020EC2C0020441A0020F812002044160020F02C0020DC2C0020E02C00200086010079020000E42C0020D82C002084
:401800007047C04610B58389182B14D1A533FF33194AD358DB0207D5041D402302000021200010F004FF00E00620144A137801218B4313701EE0172B1BD1041D29330200CA
:401840000021200010F0F3FEE4235B000A4AD3585A680B4B1A60D3781B029278094C1343073323800121A170044A13788B43137000E0002010BDC04640740100F32C0020A5
:40188000F42C00204C1A002010B543681B89172B0DD1037A012B05D101200FF037FC0022034B1A80034A137801218B43137010BD4C1A0020F32C002043681A89172A1BD1FA
:4018C000427A012A13D11A680C4B1A60D3781B029278134307339BB2094A13800822FF32934201D9064B1A800122054B9A70054A137801218B4313707047C046F42C0020D9
:401900004C1A0020F32C00207047C04610B5084B18780DF0BDFE002802D005E002F026F8044B1B78022BF9D0FFF708FC10BDC046F02C0020EA2C0020F0B585B006000C00D3
:401940001500EE235B00144AD3585868FFF762FDC3071ED5E4235B000F4AD3585F6822003100380000F0CBFE01A98C80019717230B810A4A13785078000218430FF0B4FBD4
:40198000002801D12C8005E000232B800120404200E0042005B0F0BD40740100F02C0020F8B507000D0016009A00D3185C001DE001F0DCFF114B9B78012B13D10F4B002258
:4019C0009A701A88AA4209D20D4B1968380000F096FE0A4B1B88338000240AE000233380062406E0012000F0F5F8013C002CDFD1103401F0BBFF2000F8BDC0464C1A0020D9
:401A0000F42C00207047C0467047C04600B585B008280FD840000A4B1818438801A803818180019200230022002110F000FE002802D102E0012000E0012005B000BDC046BF
:401A40005077010000B585B008280ED84000094B1818438801A80381818001920022002110F0B4FD002802D102E0012000E0012005B000BD50770100002070470020704773
:401A800030B5C5B004000023439342933D4B984272D8002970D08022520002A800F02FFE394B9C4201D9394B00E0394B0093FF230193384B6A461A603749384A1160C04697
:401AC0001B681B0F1B07F0221206934204D1314B1B68FF2213400DE02E4B1B681B0F1B07A0221206934204D02A4B1B68FF22134000E000234393439B002B3FD100F0D1FAFF
:401B00000500FFF7B9FF4290439B002B25D1244A0092009A2404144300941E4A6946116020481E490860C0461268120F1207F02109068A4204D1174B1B68FF2213400BE0F6
:401B4000144A1268120F1207A02109068A4203D0104B1B68FF2213404393429B002B07D1FFF78CFF4290429B002B01D0429B4393280000F09AFA01E004234393439845B0A3
:401B800030BDC046FF030000FF010000B6D70001B6D70000080010400400008004001040B6D8000005000080024B1B68012018407047C0460C002E4001BE7047034A136814
:401BC0001B041B0C02490B43136070470CED00E00400FA0510B5040006E0084B586800F057FA074B9C46644480231B029C42F4D8024B9868604300F04BFA10BD4C16002043
:401C00000080FFFF10B5034B1B7B584300F040FA10BDC0464C160020F0B557464E46C0B483B0040000F03DFA0190E71E2D2F74D83F4B1B78DBB29C4208D83E4B1B78DBB26C
:401C40009A463D4B1B78DBB2994631E03B4B1B78DBB29C4208D83A4B1B78DBB29A46394B1B78DBB2994623E0374B1B78DBB29C4208D8364B1B78DBB29A46354B1B78DBB2FC
:401C8000994615E0334B1B78DBB29C4208D8324B1B78DBB29A46314B1B78DBB2994607E02F4B1B78DBB29A462E4B1B78DBB299462D4BDE5D2F2E09D92A2C07D919222B4B4A
:401CC0001A60052000F0E4F9192503E0274B1D683F231D40B54206D9234BDA5D234B1A60052000F0D5F91F4B9C4664442378DBB21F4A13601F4B52461A601F4B4A461A6073
:401D00000520FFF77FFFB5420AD2174BDA5D174B1A60052000F0BCF902E00020FFF74CFF019800F0C2F903B00CBC91469A46F0BD40F3FF0F41F3FF0F42F3FF0F43F3FF0F88
:401D400044F3FF0F45F3FF0F46F3FF0F47F3FF0F48F3FF0F49F3FF0F4AF3FF0F4BF3FF0F4CF3FF0F4DF3FF0F647701002CFF0B4028FF0B401CFF0B4020FF0B4010B5040027
:401D80000F4A116801230B4313600E4A0E4B1A600E4A1368802109020B431360002809D100200CE00120FFF72DFFFFF7FDFE002804D1013C002CF5D1102000E0002010BD96
:401DC00060F02E400220000078002E4010002E40034B1868C0231B02184000D00120704700010B4010B50D4B1A6801218A431A601A68022082431A60094A10683024A04398
:401E0000203C204310601068093CA043014311601A68802109060A431A6010BD00F02E4000FF2E4070B51D4B1B6801241C40002802D0012816D02BE0184B1968012291430D
:401E400019601968022081431960154B19682E3081432038014319601968093881430A431A6018E00D4B1A6802218A431A600C4A10680725A8430143116011683020814341
:401E8000103801431160196801220A431A6002E00020FFF791FE200070BDC04600F02E4000FF2E4010B500F0FCF8044A1368C02109020B43136000F0F8F810BD00010B40FD
:401EC00010B500F0EEF808490A68084B1A408024E40122430A600A6813408022120213430B6000F0E2F810BD00010B40FF3FFFFF10B50400022802D90020FFF75DFE044B96
:401F00001868E4000134E0400123184010BDC04610020B4070B504000D00022802D90020FFF74AFE2000FFF7E3FF00280AD1064A1368E40003210800A04083430D40A540F5
:401F40001D43156070BDC0460C020B4070B504000D00012802D90020FFF72EFE2000FFF7C7FF002809D105490B68E40002340122A2409343A5401D430D6070BD0C020B40B8
:401F800010B504000C4A136803431360C30704D50020FFF7ADFF0028FAD0E30504D50120FFF7A6FF0028FAD0E30304D50220FFF79FFF0028FAD010BD10020B4070B505004D
:401FC0000C00012802D90020FFF7F6FD0D4B1B689B0F01D1C92000E05D20FFF713FE0A490B682D01094AAA409343AC401C430C60044B1B689B0F01D1432000E01F20FFF7A0
:4020000001FE70BD0C020B4008020B40FFFF0000024B1868024B18407047C04610020B400404040070B5050000F03BF80400FFF7CFFE002803D0FFF743FF012100E00021C6
:4020400008482840084A1568084B2B40184310601368012901D1FFF725FF200000F025F870BDC0460404040010020B40FBFBFBFF054A1168054B184008431060024B1A680C
:40208000024B1A42FAD1704710020B40080808000230800803D00138FDD1C046C046C0467047EFF3108072B6704780F310887047F0B557464E464546E0B4C0B080460E00D7
:4020C00017008A18204B9A422FD80B0A99461C0200239C46002522E0B4420CD3BD420AD24246515D6A46D1542278D2B28A4200D00120013502E022786946CA54013401331D
:4021000001E000200023FF2BE6D9002804D069464846FFF7B5FC844601239A46D144BD4205D26346002BECD001E001239C466346012B02D901235B429C46604640B01CBCC1
:4021400090469946A246F0BDFFFF03000160704701607047324B1A781202324B1B781A43314B1B781B02314909780B4330498B4201D1072A06D0D42109018B4206D1042AEF
:4021800004D102E02B4B042200E02A4B2A490B602A4B1A602A4B1B781B022A4A1278134380229201934202D0002B02D002E0264B00E0254B254A1360254B1B781B02254A44
:4021C00012781343244A934205D0244A934204D0052B05D103E0224B02E0214B00E0204B204A1360204B1B681B09204A1268AA2A15D1012B13D9164B1B780E2B0FD11C4BC8
:402200001B781B021B4A127813431B4A13601B4B1B781B021A4A127813431A4A1360704759F1FF0F58F1FF0F5FF1FF0F5EF1FF0F580B0000580D00006C002E4074002E40FB
:402240005BF1FF0F5AF1FF0F0220000078002E405DF1FF0F5CF1FF0F0F0F000005050000050F000080002E40EC0F00F0E00F00F06DF2FF0F6CF2FF0F84002E406FF2FF0FBE
:402280006EF2FF0F94002E4010B5FFF7BBFC10BD10B5FFF79FFC10BD10B500F04FF810BD10B500F053F810BD10B500F04FF8034800F02EF8032000F031F810BD9523000098
:4022C00010B5024800F04AF810BDC0469523000000487047020200002B2070472B2070472B2070472B2070472B2070472B2070472B2070472B2070472B2070472B207047FB
:402300002B2070477047C0460120704701207047014B18677047C0460000002010B50400FFF7BFFE044A1368C0218B43A4011C431460FFF7BAFE10BD0CE400E080225201DA
:40234000014B1A607047C04600E100E080225201014B1A607047C04680E100E010B50400FFF7F4FF2000FFF7D3FF0320FFF7D6FFFFF7E4FF10BDC04610B5FFF792FE044A93
:40238000136804218B43136030BFFFF78EFE10BD10ED00E010B514F0C1FD10BD002243088B4274D303098B425FD3030A8B4244D3030B8B4228D3030C8B420DD3FF22090292
:4023C00012BA030C8B4202D31212090265D0030B8B4219D300E0090AC30B8B4201D3CB03C01A5241830B8B4201D38B03C01A5241430B8B4201D34B03C01A5241030B8B42E9
:4024000001D30B03C01A5241C30A8B4201D3CB02C01A5241830A8B4201D38B02C01A5241430A8B4201D34B02C01A5241030A8B4201D30B02C01A5241CDD2C3098B4201D3A1
:40244000CB01C01A524183098B4201D38B01C01A524143098B4201D34B01C01A524103098B4201D30B01C01A5241C3088B4201D3CB00C01A524183088B4201D38B00C01AFC
:40248000524143088B4201D34B00C01A5241411A00D20146524110467047FFE701B5002000F0F0F802BDC0460029F7D076E7704703460B437FD4002243088B4274D30309FD
:4024C0008B425FD3030A8B4244D3030B8B4228D3030C8B420DD3FF22090212BA030C8B4202D31212090265D0030B8B4219D300E0090AC30B8B4201D3CB03C01A5241830B5B
:402500008B4201D38B03C01A5241430B8B4201D34B03C01A5241030B8B4201D30B03C01A5241C30A8B4201D3CB02C01A5241830A8B4201D38B02C01A5241430A8B4201D36D
:402540004B02C01A5241030A8B4201D30B02C01A5241CDD2C3098B4201D3CB01C01A524183098B4201D38B01C01A524143098B4201D34B01C01A524103098B4201D30B01AF
:40258000C01A5241C3088B4201D3CB00C01A524183088B4201D38B00C01A524143088B4201D34B00C01A5241411A00D201465241104670475DE0CA0F00D04942031000D3D7
:4025C0004042534000229C4603098B422DD3030A8B4212D3FC22890112BA030A8B420CD3890192118B4208D3890192118B4204D389013AD0921100E08909C3098B4201D341
:40260000CB01C01A524183098B4201D38B01C01A524143098B4201D34B01C01A524103098B4201D30B01C01A5241C3088B4201D3CB00C01A524183088B4201D38B00C01A3A
:402640005241D9D243088B4201D34B00C01A5241411A00D20146634652415B10104601D34042002B00D54942704763465B1000D3404201B5002000F005F802BD0029F8D093
:4026800016E770477047C046014B18687047C046181A00200E4B70B500251E000D4CE41AA410A54204D0AB00F35898470135F8E715F0BCF8084B00251E00084CE41AA41008
:4026C000A54204D0AB00F35898470135F8E770BD3878010038780100387801004078010030B50024A24208D0035D651C0C5DA34201D0181B02E02C00F4E7002030BD00232B
:4027000010B59A4203D0CC5CC4540133F9E710BD03008218934202D019700133FAE770470FB40B4B13B51C68002C05D0A369002B02D1200000F03CFA05AB049AA16820003E
:40274000019300F001FC16BC08BC04B01847C046181A002070B505000E00002804D08369002B01D100F024FAAB69AC68002B02D1280000F01DFA254B9C4201D16C6808E07B
:40278000234B9C4201D1AC6803E0224B9C4200D1EC68A3891B0702D52369002B11D12100280000F09BF800280BD0012040422BE0013B0136A360002B08DB23685A1C226052
:4027C00019703178A3680029F2D10BE0A269934201DB0A29F1D12200280000F027F8431CEFD1E2E7013BA360002B08DA22000A31280000F01BF8431CD7D00A2004E00A20C1
:4028000023685A1C2260187070BDC04698770100B8770100D877010010B5034B01001868FFF798FF10BDC046181A0020F8B505000F001400002804D08369002B01D100F0DA
:40284000B7F9234B9C4201D16C6808E0214B9C4201D1AC6803E0204B9C4200D1EC68A369A360A3891B070AD52369002B07D023682269FEB2981A636998420FDB08E0210072
:40288000280000F02BF80028F1D0012040421DE02100280000F01EF90028F6D1A3680130013BA36023685A1C22601F706369984205D0A3893000DB0708D50A2E06D12100C2
:4028C000280000F007F90028DFD13000F8BDC04698770100B8770100D8770100364B70B51D6806000C00002D05D0AB69002B02D1280000F05DF9314B9C4201D16C6808E0C6
:402900002F4B9C4201D1AC6803E02E4B9C4200D1EC680C22A35E9AB2110723D4D10607D409220120326037321343A381404242E0530713D5616B002908D0230044339942D5
:4029400002D0300000F02CFA002363632422A3899343A38100236360236923600822A3891343A3812369002B0BD1A0238022A1899B0092000B40934203D02100300000F0A2
:40298000D1F90123A289134005D00023A36063695B42A36103E0920700D46369A36000202369834207D10C22A35E1A0603D540221343A381013870BD181A00209877010010
:4029C000B8770100D8770100F7B58A8905000C0013075AD44B68002B02DC0B6C002B19DDE76A002F16D000232E682B6080235B011A4001D0606D14E00123216A2800B84780
:402A0000431C0ED12B68002B0BD01D2B01D0162B02D12E6000205AE04022A3891343A38155E0A3895B0706D56368C01A636B002B01D0236CC01A00230200216A2800E76A03
:402A4000B847A389421C06D129681D293AD8204ACA40D20736D50022626022692260DB0405D5431C02D12B68002B00D16065616B2E600029CED023004433994202D02800F5
:402A800000F08EF90020606321E00F69002FC1D00B680F60DB1B01930023920700D14B69A36003E0019B3F181B1A0193019B002BB0DD019B3A00216A2800A66AB047002828
:402AC000F0DCA389402201201343A3814042FEBD010040200B6970B505000C00002B01D100201CE0002804D08369002B01D100F05FF80B4B9C4201D16C6808E0094B9C4260
:402B000001D1AC6803E0084B9C4200D1EC680C22A35E002BE4D021002800FFF755FF70BD98770100B8770100D877010010B5024900F0B0F810BDC046D52A0000002310B5B6
:402B4000040003604360836081814366C281036143618361190008225C30FFF7D9FD054B24626362044BA362044BE362044B236310BDC046C5340000ED3400002535000054
:402B80005135000070B568254B1E5D430E002900743100F051F9041E08D000212A00016046600C30A0606832FFF7B2FD200070BD836913B50400002B28D18364C364036558
:402BC000134B144A1B6882620193984201D101238361200000F020F86060200000F01CF8A060200000F018F80022E06004216068FFF7A4FF01220921A068FFF79FFF022249
:402C00001221E068FFF79AFF0123A36113BDC046947701002D2B0000F8B51D4B06001D68AB69002B02D12800FFF7C2FF4835AC686B68013B05D40C22A75E002F10D0683440
:402C4000F7E72B68002B01D02D68F0E704213000FFF798FF28600028F6D10C23336016E0012320005B42E3810233A38167662760A760676027616761A7615C300822390063
:402C8000FFF746FD20006763A763A764E764F8BD94770100F7B504000700002601914834002C16D06368A5680093009B013B00930DD4AB89012B08D90E22AB5E013304D09B
:402CC00029003800019B984706436835EDE72468E6E73000FEBD000070B50E001D000E23C95E90B01400002906DA00232B60B3891B060FD540230FE001AA00F055FC0028A0
:402D0000F3DBF023029A1B021340054A9B185A4253412B608023DB000020236010B070BD00E0FFFFF7B502268B8905000C00334210D101AB6A46FFF7CFFF009907002800C6
:402D400000F07AF800280CD10C22A35E9A0523D43343A3812300473323602361012363611AE080220D4BAB62A38920601343A381009B20616361019B002B0AD00E23E15EE9
:402D8000280000F023FC002803D00122A3891343A381A3891F43A781F7BDC0462D2B000070B50500002944D00C1F2368002B00DAE418280000F03BFC1E4A13681100002BC4
:402DC00002D16360146031E0A3420DD92268A018834203D118685B688218226063600C6024E0A24203D813005A68002AF9D11E689819A0420BD12168711858181960824244
:402E000014D110685268411819605A600EE0A04202D90C232B6009E021686018824203D1106852684118216062605C60280000F0FFFB70BDA02B0020032370B5CD1C9D4340
:402E4000083506000C2D01D20C2501E0002D01DBA94202D90C23336048E0300000F0E7FB234B1C681A002100002913D00B685B1B0DD40B2B02D90B60CC181EE08C4202D134
:402E8000636813601AE04B6863600C0016E00C004968E9E7174C2368002B03D1300000F0FFFA20602900300000F0FAFA431C18D00323C41C9C43A0420DD12560300000F081
:402EC000B7FB200007220B30231D9043C31A0ED05A42E2500BE0211A300000F0E1FA431CEBD10C233000336000F0A2FB002070BDA02B00209C2B0020936810B5013B936037
:402F0000002B05DA9469A34208DBCBB20A2B05D01368581C10601970C8B201E0FFF786FC10BDF8B506000F001400D518AC4208D021783A003000FFF7DFFF0134431CF5D1F9
:402F400000E00020F8BD0000F0B59FB006000F0002920593002804D08369002B01D1FFF727FE7F4B9F4201D1776808E07D4B9F4201D1B76803E07C4B9F4200D1F768BB898A
:402F80001B070AD53B69002B07D0002306AD6B6120336B761033AB763DE039003000FFF79DFC0028F1D001204042D6E0059A111D12680591002A00DA7FE00992013423782E
:402FC0002E2B00D18DE021780322684800F024FB002807D0654B2A68C01A4023834013432B6001342178631C062261480293297600F012FB002800D19DE05E4B002B00D032
:4030000090E00722059B07339343083305936B69039A9B186B61029C2378002B04D1029BE31A049312D003E0252BF8D00134F3E7049B029A39003000FFF773FF431C00D1F2
:4030400086E06A69049B944663446B612378002B7ED00122002352426A6002A95432521801342B60EB60AB601370AB6521780522414800F0D1FA002808D03F4B2A68C01A35
:403080000123834013432B600134EFE72B68DA0604D55322202102A8121811701A0704D553222B2102A81218117022782A2A00D17CE7099B00200A2105E05242EA600222DE
:4030C00013432B607AE72278303A092A04D84B4301349B180120F6E7002800D16FE709936DE763782A2B0AD1059B02341A1D1B680592002B01DA01235B42079363E70023C8
:403100000A201A0001346B6021783039092904D84243013452180123F6E7002B00D152E7079250E705AB00933A00144B2900300000E000BF07E005AB00933A000F4B290056
:40314000300000F08BF80390039B013300D05EE7BB895B0600D526E70B981FB0F0BDC04698770100B8770100D8770100FE7701000278010000000000F8770100232F000043
:40318000F7B5170001938A680B6900900C00934200DA130022003B6043321278002A01D001333B6023689B0602D53B6802333B60062523681D401ED0230043331B785A1E53
:4031C0009341226892061CD53020E1184331087021005A1C45310978A2184332023311700FE022000123193201990098089EB047431C0ED00135E3683A689B1A9D42F0DB32
:40320000DAE72200019943320098089DA847431C02D10120404220E006232068E1683A6803400025042B03D18D1AEB43DB171D40A3682269934201DD9B1AED180027BD4247
:403240000AD0220001231A3201990098089EB047431CDED00137F2E70020FEBDF0B58BB006920A0043320793059004920A7E0C00109B6E2A00D1ABE011D8632A22D009D8E2
:40328000002A00D1B5E0582A00D0C5E045310A70814A4FE0642A1DD0692A1BD0BCE0732A00D1AAE009D86F2A29D0702A00D0B3E0202209680A43226037E0752A1FD0782AD7
:4032C00033D0A9E00E001A684236111D196013683370A4E021681A68080606D4490604D5111D19600023D55E02E0111D19601568002D3BDA2D23049A6D42137036E02168D2
:403300001A68080606D4490604D51568111D1960ADB202E0111D196015685F4B227E039308276F2A1DD00A271BE022007821453211705A4A19680392081D226818600D68A8
:40334000100602D4500600D5ADB2D30702D520231A4322601027002D03D1202322689A4322602300002243331A7002E00A274A4B03936368A360002B09DB042221689143BD
:403380002160002D05D1049E002B11D07BE0002D79D0049E28003900FFF786F8039B013E5B5C280033703900FEF7F8FF051EF1D1082F09D12368DB0706D5636822699342A6
:4033C00002DC3023013E3370049B9B1B23612BE009681A68080607D4490605D5111D19601368A28A1A8004E0111D1960136862691A600023049E236116E01A68111D196036
:40340000166800216268300000F006F9002801D0801B6060636803E0260042363270012323610023049A1370079B09AA00932100069B0598FFF7A4FE431C02D10120404222
:4034400027E02369320006990598079DA847431CF4D0236800259B070FD4099BE068984217DA180015E022000123193206990598079EB047431CE1D00135E368099A9B1A4A
:403480009D42F0DBE9E72600039B42361B7833708EE70BB0F0BDC046097801001A780100002370B5064C050008002360FDF776F8431C03D12368002B00D02B6070BDC04625
:4034C000F82C002070B50C000E25495F00F0B2F8002803DB636D1B18636503E0A289024B1340A38170BDC046FFEFFFFFF8B51F008B8905000C001600DB0505D50E23C95E07
:403500000022022300F074F8A289054B28001340A38132000E23E15E3B0000F01FF8F8BDFFEFFFFF70B50C000E25495F00F060F8A389421C03D1054A1340A38104E080224B
:4035400052011343A381606570BDC046FFEFFFFF10B50E23C95E00F015F810BD70B50500080011000022064C22601A00FCF7A4FF431C03D12368002B00D02B6070BDC04653
:40358000F82C0020002370B5064C05000800236000F064F8431C03D12368002B00D02B6070BDC046F82C0020002370B5064C050008001100236000F059F8431C03D123685C
:4035C000002B00D02B6070BDF82C0020002370B5064C05000800236000F050F8431C03D12368002B00D02B6070BDC046F82C002070B50500080011000022064C22601A0064
:4036000000F044F8431C03D12368002B00D02B6070BDC046F82C0020C9B28218904204D003788B4202D00130F8E70020704770477047000070B50500080011000022064CC2
:4036400022601A0000F02AF8431C03D12368002B00D02B6070BDC046F82C002058220120014B40421A607047F82C002058220120014B40421A607047F82C00205822024B5E
:4036800000201A607047C046F82C002058220120014B40421A607047F82C002058220120014B40421A607047F82C0020008F01007D000000F8B5054636480F46007800283B
:4036C00002D002242046F8BD002F60D000243249002D16D02A89D0070DD02868002808D003881B3BE12B04D24088FB2801D81B2801D2012409E0900707D56868002804D1C4
:40370000F7E70020088108604860002CDAD122482E8906811F481B21801D01804180042101711C490020891C0870F00705D019480622801D2968FEF7E2FF1749B00703D570
:403740006A68144812788270124D0E46AD1D281F0D60486002F00AFC284602F0F9FB308910F0B4F830890FF079FA28880FF07CFA308910F027FA0346103300F043FC1F21F0
:40378000C018890140183880A91F88809AE7012498E70000601600205C1A0020FFB585B0002768460E9D07734F481C460078002802D0082009B0F0BD10990F980190009524
:4037C000029105A807C800F06BFC0028F2D16946264603AB84460873002C19D0002115E08A00B75A082F09D990198078002805D0083FB7521878401C187005E0002914D037
:403800000027B75290198770491CC9B2A942E7D360460028CED10F98002809D0109901F081FE002804D00120C4E701208446EFE702F0EDFA2D48002141608160059901608C
:4038400021888180022D07D3A1798171A17AC171A1890181218A418100211EE0481C19E082008B00A75AE65ABE46BE4211D26F463E80B4461E190296B678BE700196764687
:40388000E6521719029EBB78B3706646A652019EBE70401CA842E3D3491CA942DED3134822460C3000906846037B0799069800F07FFC0028B8D168460B4C007B60700B4884
:4038C0000C3002F0D3FA0028AED1084907480C3109F096F80028A7D109F0BCF80028A3D10121217066E7000060160020501A002010B509F0A3F802F08AFA02F0FBFA084CAF
:403900002078002801D000F0E3FC00F0F7FCFF2001F068FCFF2001F075FC0020207010BD6016002010B509F089F802F070FA02F0E1FA00F0CDFC074908460C3809F060F8E8
:40394000002806D109F086F8002802D1024A0121117010BD5C1A00206016002010B502F040FA10BD10B502F052FA10BD10B500F0A5FC10BD10B50749044609780220002912
:4039800007D1204602F0CCFA002802D120460CF09FF910BD0418002010B502F040FA10BD1CB5FF206946087100200870FFF7DAFF6A4601A9062001F0CFFA6946002008566F
:4039C0001CBD000038B504460120002C20D0617801291DD800290BD0FF25E535FFF7C2FF0C4828180088C0B22070072803D00EE0FF25CD35F2E7002069460870684601F096
:403A0000D5FB69460878012801D108202070002038BD000000102E40F8B504460120002C26D06178012902D92278092A20D8002905D0FF25E5352078092803D004E0FF2584
:403A4000CD35F8E708202070FFF78CFF2078114F114E08280DD0002000F02AFA70780128207810D00D4969180880FE2070700020F8BD012000F01CFA0720B88105492031B3
:403A800088800120F2E7B8810248217820308180EBE70000C0112E40FC16002000102E400121002807D005494A8842804A784270097801700021084670470000921600207F
:403AC000F8B504460120002C52D0217808294FD2617804294CD26088102166283DD800283BD065882348662D45801BD801270026BF020A2D33D90A212846FEF7D5FCC0B29C
:403B0000072800D907200A2141438D4204D9691ACEB21F2E00D31F264101314339431648FEF714FB134D60786870217829701349496A8A0781001148920F11432430FEF705
:403B400007FB687800280CD0401E022181401820FEF794FDC000083804E06180C1E72946DCE7B82081B204482030FEF7F1FA0020F8BD000092160020B8102E4040F02E40C8
:403B800070B505460124FFF7EDFE002D04D00821284610F0F9FE0024204670BDF7B582B069460BF00BFE050041D1FFF7DBFE6846008804F09BF8040038D004F052FC00289F
:403BC00034D0FF278820493700593E46002805D01849097B890601D5878AC68A204602F0FDFC01280DD006F0D1FD50210A5B617903F090FA283081B233463A46204606F0C6
:403C0000E5FA20464030C28A04998A4200D9C182C18AA07805F088FC0398012801D901200390A078039905F085FD00E00625284605B0F0BDC41E0020F8B50E4669460BF01D
:403C4000BDFD050033D1FFF78DFE6846008804F04DF8040019D004F004FC002826D01548F121007B0840C00621D520464030418A008A491C41430804C00C0F4986420CD3B9
:403C800026822079072802D011E006250FE001200870204603F01CFC09E0002E07D100200870A078002104F0EDFF00E002252846F8BD0000C41E0020FC160020F8B50124DD
:403CC00006460D46002925D013480078002808D0FFF748FE694630460BF070FD040003D018E000200880F8BD6846008803F0FEFF06000ED004F0B5FB00280AD00748F1212E
:403D0000007B0840C00602D5308A288002E0022400E006242046F8BDFC160020C41E00200121002809D0FF218931C18003210180062141800421818000210846704710B584
:403D400001F012FA012801D101F014FA10BDF0B589B015460F4606460124FFF703FE002E20D0002F1ED0002D1CD0102239466846FEF7C5FC1022314604A8FEF7C0FC1021E9
:403D8000684611F025F8102104A811F021F82B46102204A9684606F0ADFC1021284611F017F80024204609B0F0BD000038B5FEF78FFA02F0E7F803211948FEF7C9F901206B
:403DC000FEF762FA16483038406A04218007800F084381B2009012480C38FEF7B9F91148016802221143009189B2FEF7B1F9B8210D48FEF7ADF90C48032109021438FEF742
:403E0000A7F9094C5321D83C2046FEF7A1F907210648FEF79DF954212046FEF799F938BD70F02E40001F2E40D8102E4098142E407CB5FF24069E079D00280BD0002909D04C
:403E4000002A07D0002D05D0002E03D0002B01D01B2B01D9012406E00096019506F079FC042800D1002420467CBD7CB5FF24069E079D00280BD0002909D0002A07D0002EF0
:403E800005D0002D03D0002B01D01B2B01D901240BE00096019506F015FC042802D0052802D002E0292400E0002420467CBD000010B50A4A141D012808D009491046FEF717
:403EC00047F908492046FEF743F910BD04491046891CFEF73DF90349491DF3E788002E4031D000003AE3000010B5064A012805D01921C9021046FEF72BF910BD1D21C9025D
:403F0000F8E7000090002E4001460120002903D0024A002012880A80704700001818002070B5044601250EF0D7F800281CD10F4914204968604340182038C1890C48814241
:403F400008D0C01E814205D0401C814202D0401C814209D1E008074B6407195C640F0122A240914319540025284670BD90180020032800007C250020014610B50120272945
:403F800003D8084602F008F8002010BD10B50121002808D08278072A05D80278272A02D802F008F80021084610BD0000014608B50120002909D0002003460090064A074878
:403FC00000F0D8FA002801D0022008BD034A0121521E117008BD0000E9CA0000A117002010B5074C02202178012905D1607800F015FB002801D0022010BD0021217010BD5D
:40400000A0170020134A1088810703D08107890F401A001D11791030484381B25088820703D08207920F801A001D800040180A494030098980B2CA0701D0503080B28907E2
:4040400006D504495422091F09785143081880B270470000661600205C1A002010B501F0B9FF0BF03DFB10BD70B504460120002C12D02368002B0FD0616800290CD0074D67
:4040800006222889208118462968FEF738FB6968606809780170002070BD00005C1A0020FFB58446384F1C460020BB883F78054602460646002F11D100290ED00299994213
:4040C0000BD36146002908D0002C06D00A99002906D02E4B0B99994202D2012004B0F0BD002144E0AB001F19BF78002F3BD0E35A002B38D07B43591889B22B0000F04AF878
:40410000050410161C253100A7782388BC46FF27233BEB37BB4222D26346032B1FD322E0A388002B1FD0302B19D31CE02389002B19D0282B13D316E0A289002A13D01346A8
:40414000134F233BBB420AD20DE0268A002A0AD033460F4F233BBB4201D2964203D901200EE0002001E000280AD16D1CEDB2099B9D42B7D31C2463435B1802998B42ACD8BF
:404180009642AAD8AAE700006016002079020000BAFF000030B47446641E2578641CAB4200D21D46635D5B00E31830BC18470000FFB583B0002469460C801F4606468C8087
:4041C000002806D00598002803D004983043800701D0012466E0002FFBD03449049809888842F6D3FEF76CF8FEF75AF800F06EFC002855D100F0D8FD002851D12C49084606
:4042000001F0C4F905042D0C4AD12A480499066081800021C18007810C98007AC00704D0684601F00DFE040007D10C98007A800703D501A801F00CFE0446BF1DFEB2002CB1
:4042400020D13146059800F085F804001AD10FF0C7FC040016D16A461088928808368518144AF1B29088D288AEB29319984207D3401B801A80B201F07BFC050007D000E075
:40428000FF25012400F0BAFA002D04D008E0F8B200F044F9F6E700F0DDFA07490120087000F026FC204607B0F0BD00006416002041440000681A00206C16002010B5034875
:4042C0000078012801D101F0F5FA10BD6C16002010B5FF2400F006FE00280AD100F00CFC002806D10448007A801DC0B200F02EF90024204610BD0000681A002010B500F08C
:404300000DFE01F075F90449002008608880C88008810249087010BD681A00206C16002070B5084B0446DA889E8803205518B54206D8186880182060D8884018D88000201A
:4043400070BD0000681A00200148008970470000681A0020F0B587B007460D4600208900009006916846FFF7DBFF844600285DD1304800990160002117E02E4B88001A684C
:404380000629115406D22C4C0419667882185670628805E0C419203CA67A8218567022891B68C018491C4280C9B2A942E5D300242DE0601CC2B2059025E01E4FA30039687F
:4043C0009600581840887118039604904E88B04217D938466F46FE80B6464F786E4677710297049F4F800168039F5E18767879184E700168764659184E800068029F18180B
:404400004770521CD2B2AA42D7D30598C4B2AC42CFD36046002809D168460699FFF780FF8446002802D1054900980860604607B0F0BD0000701600206078010074160020EA
:404440007047000010B5002809D005494A68002A05D0011F08788000105801F037FB10BD7016002010B50446FFF76EFFC0B2801DA0420CD307484068002808D0A100405830
:4044800001F096FA002801D00470001D10BD002010BD000070160020F8B516460D460446FFF752FFC0B2801DA04203D20020C0430090F8BDB2B2E9B2684601F09FFA0099A6
:4044C000481C03D0024AA000526811500098F8BD70160020F8B50746FFF736FF801DC6B20A49002005460C680DE06178002907D06188B94202D32078FFF7B4FF002804D162
:40450000241D6D1CEDB2B542EFD3F8BD7016002010B5002801D0FFF795FF10BD70B506460948002504680BE06178002905D062882078121D0023FFF7AFFF241D6D1CEDB2F3
:40454000B542F1D370BD000070160020F8B5084F064600243D6808E0287879688000085801F060FB2D1D641CE4B2B442F4D3F8BD70160020FFB581B00A9F16000C4620D0A1
:4045800000F0F6F8054604281BD0002F0CD03846FFF7A0FF20492A0151184860002810D03A460499FEF7ABF81B4928010E504618778101980570200406D47D20C00044430A
:4045C00004E0FF2005B0F0BD6404640C00F0BEF80746042807D000F06FFAA0420BD800F06BFA201A03E0204600F0CCFA0020F06035720020E6E700F05FFA009000F0D8FA3D
:4046000000980121001B009000F00CF902493A0151180098C860E6E7741A0020F8B5042801D3FF20F8BD060116483418217A042903D0E068002802D017E00020F8BD00F02B
:404640003BFA054600F0B4FA00F0A0F804280CD001010C480F18F8680021451900F0E2F80020F860284600F08DFA6068054D002801D0FFF74DFF042020720020A851608104
:40468000E060DAE7741A0020FEB500266A46304601232549050169180D7A042D02D0C96800291BD000211154401CC0B20428F0D300246846005D002830D01B482101081825
:4046C0004189476805680291002101604160042241810272C160002E02D015E01354E3E700F054F804280ED001010F4808180190C6680021304600F095F801980021C1600E
:40470000304600F03FFA0126002D07D038460299A847002F02D03846FFF7FAFE641CE4B2042CC6D3FEBD0000741A00200EB5002005216A46009011815081034869460068E4
:4047400010F001F90EBD000078160020074A0020010189180B7A042B02D0C968002903D0401CC0B20428F3D370470000741A00200549002002015218127A042A03D0401C16
:40478000C0B20428F6D37047741A002030B50A4B04200A4C00210A011219157A042D06D0D268002A03D09A4201D808461346491CC9B20429EFD330BDFFFF0000741A002091
:4047C00070470000F8B500250B4F2E462801C419217A04290AD0042121723E506068002802D0FFF795FE66606681E6606D1CEDB2042DEBD3F8BD0000741A002030B50020B7
:40480000074C05460423020111190B72A5504D60401C4D81C0B2CD600428F4D330BD0000741A002030B5094C00231A011219157A042D04D0D568002906D02D18D5605B1CAC
:40484000DBB2042BF1D330BD2D1AF7E7741A0020002070471CB5002469460C70142001902346054A054810F073F804480068401C00D1FF2420461CBDD148000078160020C2
:404880003EB5124A0146FF2000230124126800290DD0012914D0042908D104206946009308814B81104610F04EF880B23EBD68460093048143816946104610F03FF8F4E742
:4048C00068460093048143816946EBE77816002070B545890468416800890300FFF75AFC08280509091E22282628002006F00AFD1EE0022908D0C8B22A4621460EF002F9BA
:404900002046FFF705FE13E002202A4621460EF0F9F82946204600F00DF809E000200FF009FD05E02046FFF7AFFE01E0FDF7EAFC002070BD014B0022DB6818477C160020AD
:4049400070B5448905680089022803D0032809D0FF2070BD2246094C0023A46829460120A04708E0FEF7FEFF241DA2B200232946022007F0F8FE002070BD00007C16002090
:40498000704770470248002141600180418070477C16002070B50C46002186B016460391012802D0022859D116E003A9012007F02FFF01281BD1039D324621462846FDF7E7
:4049C0009EFE0095287801900220694608814E816846FFF7B5FF41E0214D002B686809D0049004A9022007F013FF01281DD0022006B070BD002812D0298840182146FDF77C
:404A00007EFE28880024801980B228806988091D884206D12C801348FFF792FF03E00320E6E788421AD96C6018E004986860E278A378110219430B4A698000231060E356C7
:404A40005360032313815181A1788170E178C1706178417021780170042028800020C7E77C160020B41A00203EB515460C46022803D004280CD000203EBD00910190022091
:404A80006946088107484A8100680FF05CFF07E00EF038F8044B0022DB6829462046984701203EBD781600207C160020014AD160906070477C160020034801688068081A56
:404AC0000A21484300097047C01A002010B5FDF7EBFB4C2204490548FDF711FE03490120C870002010BD00007C780100C41E002010B5FDF7D1FB10BD0020704770B5134C66
:404B00002368002B08D0207B1149C20705D04008400020738868A08070BD88680B4AA18880B29268814203D90A4D691A091802E0814202D2411A5118A160A080A068984288
:404B4000EAD30FF01DFF00F013F870BDC01A0020C0102E40FFFF000010B508461946FFF7A5FF10BD704710B5FFF77EFF10BD000003480021016041608160C1607047000043
:404B8000C01A0020024610B5FF20002A0CD0FFF7EFFF064C0321207B0843207310010A21FDF782FC2060002010BD0000C01A002000B504480A21806848430209FFF7D8FF6A
:404BC000104600BDC01A00200248007B8007C00F70470000C01A002010B54B490868002802DA4A4B01221A70022290430860484800694549C00B4031096A0246C907C90F48
:404C00000A4259D0012000F0EDFA3F480E216C30FDF79EFA3E4820218430FDF799FA3C4814219C30FDF794FA3948FF21C131A430FDF78EFA3648FF212F31B030FDF788FAE9
:404C400033483449BC30FDF783FA31483249AC30FDF77EFA30492E48491CB430FDF778FA2B482E49B830FDF773FA29482C49CC30FDF76EFA26482B490830FDF769FA2448B7
:404C80002949A830FDF764FA214828498830FDF75FFA1F4826498C30FDF75AFA1C481921C9029030FDF754FAFDF754FAFDF710FBC0B2022812D01FE000290BD0002101420E
:404CC0000AD0114801216030FDF742FA0120FDF7DFFA97E70121F2E7FF2010BD15491648FDF736FA14481549001DFDF731FA124800210830FDF72CFA54200449C043891C40
:404D00000870002010BD000000F02E408C16002000002E40320300002F3F00003102000010520000EC160000FA12000031D000003AE300009956000080012E40F80F000037
:404D400070B50646581C80B245086D00002408E0304600F0C1F81055000A1119A41C4870A4B2AC42F4D3D80705D0D0182038D15CC47FD454C17770BD30B50A4C00210019B5
:404D80005B1E07E0541864782502545C2C430480891C89B29942F5DB994201D1515C018030BD000000102E4010B5FF2000F01AFA0F49FF2048700E481021801D4180012192
:404DC000417001700A490020C91C4870FFF704FF04000AD100F02EF907210648FDF7B6F9044807211830FDF7B1F9204610BD00008C160020CC112E4070B5002405465B1ED2
:404E00000AE0284600F068F8010A161971702D1D1055A41CADB2A4B29C42F2DB9C4203D1284600F059F8105570BD000070B500210A4D5B1E0AE0541864782602545C344356
:404E400046193480001D891C80B289B29942F2DB994202D1515C4019018070BD00102E40F0B50599091FCFB200217E1E0BE0541864782502545C2C43164D45192C80001DBC
:404E8000891C80B289B2B142F1DBFC0712D01C78515C24020F4A0C4381180C809C785D78001D210280B2294384182180001D80B2D9780CE059781A7809021143054A8418CB
:404EC0002180001DD9789B78090280B2194380180180F0BD00102E40014940180088704700102E4010B50B490020487000F0A2F80020FEF7DDFF0020FEF7F6FF0721064868
:404F0000FDF724F9044807211830FDF71FF9002010BD00008F160020CC112E4010B50C48007801280FD100F0C1FF00F0DDF8002804D10848016A4908490001620548022167
:404F40003030FDF705F902490020C91E087010BD8F16002040F02E4010B50B46062812D006DC01280CD0032801D1FFF7BBFF10BD0A28FCD00B28FAD105480078107010BD50
:404F8000FFF712FF10BD1146184600F041F910BD92160020F8B5244DAC6A0127A007234E002816DA307806280ED1286A384328621F480069F903084381B21D481030FDF7EE
:404FC000C7F8042000F00EF9174802212830FDF7BDF8E00718D001F053F801280FD1002001F088F8062000F0FDF81049FF20C91E48707078002802D1686B384368630A483F
:4050000001212830FDF7A2F8E0050BD53078042802D1052000F0E6F80348FF2101312830FDF794F8F8BD000040F02E408F16002000002E4010B503212348FDF789F8012024
:40504000FDF722F920483038406A204C80076178800F890001431C480C38FDF779F86078002808D0401E022181401820FDF706FBC000083800E0B82081B21548FDF768F88F
:405080001348032109021438FDF762F810481149B830FDF75DF8612189010F48FDF758F80D480321001FFDF753F80C490C48FDF74FF80B480B496038FDF74AF808480121A0
:4050C0008838FDF745F810BD70F02E4092160020D8102E4090890000041E2E40FF0F000058122E40209000000449012009684907490F022900D000207047000000010B4022
:4051000000B5FFF7F1FF002805D009480168C908C900016000BD0748016A490849000162054801690122D2039143016100BD000000010B4040F02E4000002E4008480178EB
:4051400006290BD140780749002803D1486B400840004863C86A01221043C862704700008F16002040F02E4001480078704700008F16002002484078022800D0012070473D
:405180008C16002000B50300FFF704F8080D050D0B070507090D012000BD032000BD042000BD022000BDFF2000BD0000074A9168D26889B2064B92B2994204D105498A42B0
:4051C00001D1012100E000210170704780002E4033D000003FE3000001494870704700008F16002010B50446FDF75AF8072C01D9FF2C01D102480470FDF74EF810BD0000DD
:405200008F16002001494870704700008C16002070B50C460546FDF75BF8C0B202280E49287804D0FF2810D04C280CD810E0FF2809D10A4AD0680004800F032801D00878D3
:4052400007E09069000A553803E00878207070BD4F382070087070BD8E16002000002E40F0B50122002834D0002932D00424420600D00524792342065B06D21800D0641CA2
:40528000034600221EE00C2516466E43124D00277519AF72104F002ABB51696007D0661EB24209D10D4E86197606760E05E05E06760E8027BE1B00E080269B198919521CFA
:4052C0002E81D2B2A242DED303480549006B002288611046F0BD00004C1D0020790200009816002018B50020694608700A48006900280ED0132149014018047E68460470B3
:405300004F21C900054800F0A9F8A04201D0012018BD002018BD000098160020D01A0020F1B582B000206A4610700299002903D100F0E6FE00283AD11E4F00240C212646EF
:405340004E43F519A97A01291DD11B49B859896988420BD14F21C900786800F07FF869460870132279685201891808762A89B9596868FCF79DFE00280CD0282002990029E4
:4053800005D0282803D0641CE4B2062CD6D3641CE1B20AE00021A972F0E70C224A43D219927A012A04D0491CC9B20629F5D3FEBD2820FEBD4C1D00209816002007490020E7
:4053C0000C2242435218927A012A05D0401CC0B20628F5D300207047012070474C1D0020F8B50F000446164609D01A4D1A496868A04202D94018A04201D38E4201D901201D
:40540000F8BD39462046FDF76BF9002820D0324639462046FDF773F90E49F0B2012620318E7600210C220B4653430A4A9A1813895568EF18A74207D9641B1B1B9672834249
:4054400006DAC01A1469C0B2491CC9B20629E9D30020F8BD4C1D002079020000034610B50020024604E09C5C2018521CC0B292B28A42F8D310BD000070B500F063F8084C09
:40548000064A216907480D46FDF739F905492846FFF7E6FEFFF726FF207070BD7902000098160020D01A002010B500F04BF810BD002070470020054A002902D0012902D087
:4054C00002E0906000E0D060002070479816002070B5084C154608460549E26889182A46FDF70DF9E0684019E06028B270BD0000D01A0020981600203EB50A226946FFF7DC
:40550000E7FF044606480A2200686946FDF7E8F8002802D00020C0433EBD20463EBD00009C160020002802D0044A914201D2FF20704703494A610861002070477902000015
:4055400098160020024800218160C160704700009816002070B5074C15460548A26880182A46FFF73DFFA0684019A06028B270BDD01A00209816002010B503490A22096819
:40558000FFF7E8FF10BD00009C16002010B50F4A002313600E4A13600E4B18600E4801600E49012008600E490860000290600E490C4808600D4914300860FF38153850608E
:4055C00000F0BEF800F0CCF9002010BDCC160020B4160020E0160020E4160020D0160020C0160020941E0020C4160020D816002000207047014610B50020002910D0094B11
:405600001A689C685118A14209D25868196080188A0704D08A07920F891A091D196010BD002010BDB4160020F8B50024164E671E321F3D463168136806E0142262431032CA
:405640008A58521C1BD0641C9C42F6D36A1C14D02C461422544322460C3288500C214843FFF7C8FF3168002808510AD031680020103408517068401C70602846F8BD254650
:40568000E4E73846F8BD0000C4160020F3B50026F64381B000281BDB1E490968884217D80299002914D01B4F142204463F1D54432546396810354859401C09D0FCF7F0FD7F
:4056C00038682F1F4159C359994203DBFCF7E4FD3046FEBD214608310091465801590C20704308180C220299FDF709F80948761C001D0068C159B14200D100260549009A0E
:40570000091D865008684159491C4151FCF7C4FD0020FEBDC0160020002803DB07490968884202D90020C043704704491422091D096850431030085870470000C0160020A7
:40574000F0B500200D4A451E0346171F50600FE014260146714314680E1DA3510C461668083433511668083435511468401C635039688842ECD30020F0BD0000C416002070
:40578000F3B50026F64381B0002841DB2349096888423DD8029900293AD0204F142204463F1D54432546396810354859401C2FD0FCF776FD3868415900292BD0211D009121
:4057C00046580C21005971430F46C1190C220298FCF795FF11480021001D0068761C00590C34C0190160416081600C48001D00680159B14200D100260849009A091D865069
:4058000008684159491E4151FCF746FD0020FEBD3046FEBDFCF740FDFAE70000C0160020FEB504460D4600201E49089E0860471E009001900290002C11D0486885420ED2BB
:40584000002A0CD0002E0AD0642E08D808460C3001681C2068430C18207A002801D03846FEBD0120226020721846FFF7DDFE6060401C13D06681A6810A4827610C3067618F
:405880000179A94200D205710021684601810A462846029B00F040F82846FEBD00202072DDE70000CC16002038B50124009400F039F838BDFEB50027164EFF433D460024E3
:4058C0000EE01C20316860430818017A002906D04068FFF721FF002801D0254603E0641C3079A042EDDA681C12D01C2130684D434419FCF7D5FC69466068FFF741FF0546ED
:40590000FCF7CAFC002DD9D1216868468847D5E7FEBD0000D816002038B50024009400F001F838BD1FB500220C49541E0A60002811DB496888420ED808491C220C310968F0
:4059400050430818406801A9FFF7A0FE401C02D0002004B010BD2046FBE70000CC160020F0B50021114A4D1E174611710C3F0B46BD6016E008461C2460431668041D355105
:4059800014680646235014680836A3551468361DA353044616680A34335318301468491C255078688142E5D30020F0BDD816002038B500210091002811DB0F49097888427F
:4059C0000DDA0D4D04010C3529680859002807D0201D0818694600F06FF9002801D0002038BDFCF75DFC28680F34015D491E0155FCF752FC009838BDE8160020F7B582B0B9
:405A0000002502986E1E06602E48D21C024017462D4A2C4610460C380178106805E02301C358002B0FD0641CE4B28C42F7D3711C28D03401211D40180191039900F02AF9D1
:405A400000281FD101E02646F1E71F48016820460C300F521C480399026820460E30115419480399026820460F3011540398784300F0A0F8144900280968085102D000240F
:405A8000009011E001251AE00F48016801980818009900F02CF9002801D0012502E00098C0190090641CE4B203988442ECD3002D05D10298066004480179491C01712846D8
:405AC00005B0F0BDFCFF0000F4160020F8B50D4600216A468C461180002839DB23490978884235DA214B04010C3319680A59002A2ED020460C300B5A801C0E5C184670430F
:405B00008018954224D3854222D2002006E007465F43BF18AF4206D0401CC0B2B042F6D36046002814D0114E271DC8190C366A46294600F006F900280AD168460088012840
:405B400008D030682946C01900F0D1F8002803D00120F8BD0020F8BDFCF7A2FB30680F34015D491C0155FCF797FBF3E7E8160020F8B50F46002400F031F8002817D10C4969
:405B800000220B460C334A600EE021011D680E466A501D680C36AA53B61C1D680F31AA551D68641C6A54E4B2BC42EED31A71F8BDE816002000280BD0C01C074A81085068A5
:405BC000890053884118994203D89368516018187047002070470000E8160020F8B5064600200F4D009029700C0121466846FEF797FB00280CD129460C3100980860301B67
:405C0000001F84B221466846FEF78AFB002801D0FF20F8BD6C800098A8600020F8BD0000E8160020F8B5002827DB19490978884223DA174C05010C342168485900281CD0CC
:405C400028460C30085A009028460E300E5C401C0E5420682F1DC01900F064F800280CD12068002445590EE0094829460C300068C01900F03CF8002801D00120F8BD0098B6
:405C80002D18641CE4B2B442EED30020F8BD0000E816002030B50D4604000BD0A800FFF789FF6060002805D000202570C0436080002030BD012030BD70B50D46040005D0E1
:405CC000002D03D00220205E002801DA012070BDFCF7E6FA0221615E60688900405828606088401E6080FCF7D7FA002070BD70B50D46040007D0002D05D002212078615E87
:405D0000401E814201DB012070BDFCF7C9FA6088401C00B26080616880000D50FCF7BCFA002070BD10B5040009D0227800216068FCF7EEFC0020C0436080002010BD0120DD
:405D400010BDF0B500231D46002802D00224045F0AE00120F0BD46689F00F6598E4201D1012503E05B1CDBB29C42F4DA15700020F0BD00000148007870470000FC160020FD
:405D80007CB505460024FDF7EDFDA8796946087000A8062229460130FCF7B1FC0021684605F0A6FD0C2806D0072806D01F2806D0122806D006E0022404E0042402E0272425
:405DC00000E0012420467CBD10B50024FDF7CAFD0021084605F090FD0C2800D10224204610BD10B502280BD0032802D0042809D102E000F059FA05E000F004FBFF2801D14D
:405E000000F014FBFFF7B0F9FFF7BCF910BD10B500F03CFBFFF7A8F9FFF7B4F910BD70B504460025FDF79EFD002C06D0A079012803D8214602F0B4FF00E00125284670BD6A
:405E400001460120002902D0502008800020704701460120002905D003485422007850430880002070470000FE16002010B502460D49FE204870032410460FF087F80028CF
:405E800010D10FF02BF800280CD106F01DFD002808D100F0F1FC002804D105F0CFFF002800D10024204610BDFC16002002480021018280210180704700102E407CB50546E9
:405EC0000024FDF74FFDA8796946087000A8062229460130FCF713FC0021684605F01AFD0C2802D01F2802D002E0022400E0072420467CBD10B5FF240FF0C0F8002804D13C
:405F00000EF0ECFF002800D1002403490020486002494872204610BDFC160020D01F002070B50025044600280ED0A07901280BD8FDF718FDA0790028204602D003F03CFB63
:405F400003E003F011FB00E00125284670BD0000014610B50120002904D006220248FCF7CEFB002010BD00000817002001460120002903D00878024908700020704700009C
:405F8000FE16002010B5002403F044FC002800D00124204610BD000010B50446FDF7E2FC204603F0C7F802490220087610BD0000101F002010B50446FDF7D4FC2278A178BB
:405FC000607803F0C9F802490120087610BD0000101F002010B505F007FC06F031FB04F01FFE10BDF0B5002493B00E46054627461094FDF7B7FC00F0A9FE002836D0002DFD
:406000000CD0EA7F1F2A01D9012407E000A829460130FCF774FBE87F69460870002E0FD0002C29D1F27F1F2A01D9012424E008A831460130FCF763FBF07F08A9087001E0A2
:40604000002C19D10020002D05D011A9684600F0CDFE10900120002E05D011A908A800F069FF074601201099394301D0022403E0002801D000F026FE204613B0F0BD0000EF
:406080000148007A70470000D01F002010B507480024807B002806D00448203002F02EFA012800D1FE24204610BD0000101F0020014A002192681047FC16002008B5002204
:4060C0006B461A7026280CD0094A342852680BD0352805D1900703D50021352006F0DCFC08BD19462620F9E7D007F9D03420F5E7FC1600200149087270470000D01F00203B
:4061000010B509480024807B00280BD0FFF72CF8062801D0032800D12824FFF7B7FFFE2800D12824204610BD101F002070B50E46050001D0002400E00C4C002C11D0E28A31
:40614000500609D5D107C90F022003F0D3FAE08A40218843E08204E0D107C90F012003F0C9FA3146284602F077FF70BD301F0020F8B50546002004460D4E009013E0224665
:406180006946284601F0CCF90098002801D00EF0DFFEA878214602F041FDA878214602F02FFD641CE4B2308AA042E8D8F8BD0000FC1F0020F7B58E4622490868203080783F
:4061C000002802D08446002338E0FF20FEBD1D48212100680D5CE9000A1856799779D47912794058B2420DD30EF0B2FE1548006820304178491C8907890F41708178491E06
:406200008170E2E78118B61A0098F6B20160BC4212D1A64204D290197146C0B20E7003E010197146C0B20C700299EA000D70054909685118087103E05B1CDBB26345C6D32F
:406240000020FEBD60170020F8B50D460446FCF727F8144E3068034620339A78042A1CD0E178A77809020F431978521C491C8907890F19709A70CA00845010184771316883
:4062800000205118087130681018C571306810188571FCF701F80020F8BDFBF7FDFFFF20F8BD000060170020F8B54E4CFEF75CFF012847D14C480078002843D002F054FEB3
:4062C00000283FD004F086FF00283BD0474E7078C00703D000F040FD012833D0307E00287DD17078002500285BD0000706D540488089070B00F02EF9384370D13B48417833
:40630000684604F04DFA217A3A4CA2788918C9B2814262D802F028FE002860D0344860300789324E203602F069FC6846008802F093FC02F02FFD30490988884203D1012049
:40634000FEF750FF4BE02D49012008702748807B00281DD0002F1BD04036F07E002817D123486030008821494000C031498981420AD26078002807D103F0EAF92049088ADA
:4063800003221202104308822078002800D0257002F098FC0120FEF71FFF00F049FC174C15E002F0E1FD002819D0102402F0F2FC214602F0DBFB02F04FFC104C01202070ED
:4063C00002F080FC0020FEF707FF00F031FC20780128B4D1FEF794FE25700020F8BDFF20F8BD0000041F00208C160020101F0020A0102E4022170020341700200E17002071
:40640000E0112E4010B50848FF244078002809D102F0AAFD012805D1FEF780FD0720FEF7E1FE0024204610BD101F002038B5FEF79BFE012801D0002038BD02F095FD00282A
:406440000AD0114C6078C00703D000F085FC012802D0207E002801D0FF2038BD617800290FD0684604F09CF9022806D96846008802F0F2FB012002F02FFC0320FEF7B2FE20
:40648000D9E70020F7E70000101F002038B51E4CFEF76AFE042813D0052811D0062812D003282AD007280AD100206946087002460120FEF751FDFEF757FE0128FBD138BD98
:4064C00000F0D6FB38BD02F01FFC00F0D1FB02F09BFC8007800F0228F4D10C4841880029F0D05B21095D0029ECD101210170A07D0140022003F0FEF838BD02F009FC0120B8
:40650000FEF770FE38BD0000301F002022170020F8B50646002403F05BF90546304603F071F903460A480021068A0DE001228A401046174628401F40002803D0002F01D11D
:40654000224394B2491CC9B28E42EFD82046F8BDFC1F002070B500252C460A4E03E0002C01D0002000E030460079002803D02046FFF7CEFF0543641C2406240EEFD028464B
:4065800070BD0000301F00201CB50020694648706846FDF717FA01AA69460A20FEF7DCFC6946042008561CBD70B50D4601F09EFB04000BD02079002808D0FDF7D3F9E17846
:4065C000A0782A4602F0FAFD002070BD022070BD0148007970470000041F00204030C07E002800D00120704700B500F001F800BD902148430749084A40186030417F491C0E
:40660000C9B24177D289914201D300214177C8B270470000101F0020FC1F002013B501F065FB04000BD001F01CFF002807D0214601AA0A310620FEF78FFC00201CBD022080
:406640001CBD000010B50C4601F050FB00280AD001F007FF002806D0224604490A20FEF77BFC002010BD022010BD0000F11E0020F3B581B0074601460026029803F0A0F8E9
:406680000446002F01D0002500E0154D002D21D0284601F061FB032C04D13946029803F0EBF806463846029902F0AAFA032C06D0002C10D00121384601F054FC03E0314616
:4066C000384603F0EFFA284602F088F90221284602F09EF9FEBD3846029902F091FAFEBD301F002010B5044600F04CFA002804D103F0BAFF002801D00C2010BD2078611CD5
:4067000002F062FEFF2801D01F2010BD02F0A8FEFF280AD02178621C02F0FAF9044821780068026B601C904710BD072010BD00004817002010B503F097FF002801D00C20AE
:4067400010BD02F023FE03480068C06A8047002010BD00004817002070B50D46044610210EF036FB1021601806460EF031FB334610221946204603F0BDFF102130460EF024
:4067800027FB02202870204605F08EFA70BD0000FEB504464078217802028006870FE0781143A5780E050002360D0543304601F09DFAEAB23B4621460096019000F0FAF98A
:4067C0000006000E14D10B48224600680199436928469847C0B2FF280AD10198EAB24030817EFF23491C81762146019800F0E1F8FEBD0000641700200020704710B504464F
:4068000003F032FF002801D00C2010BD2078611C02F0DAFDFF2808D002F00EFD044821780068426B601C904710BD1F2010BD00004817002010B500F06BF905F0FFFA00209C
:4068400010BD10B5044600786178E2780843A17811430843217908436179084305D003F0F5FE002803D00C2010BD122010BD204602F0A2FE002010BD10B5FBF729FD02F022
:40688000C9FF044804F084F802F0E0FC012000F003F810BDD81E0020F1B586B003A8009005A8019028489F22017B114001736846FDF7DAFB002845D169460989C90705D035
:4068C000224806990068C2686846904769460989890706D5002835D11D480068816A0698884700282ED11B4E0025757075737571F575357675767575B570F570B5713746FA
:40690000F5730120D03738731F20F880FF2130467972A0300176457600F028FB00242046069901F049FD002803D1641C2406240EF5D0FD720749BD72B573C0310D704D7091
:406940004D600D7207B0F0BDC41E00206417002048170020101F002070B505460E46084602F036FF0446304602F04CFF0121A9400A46224001400A4301D0012070BD00205C
:4069800070BD10B50446084602F03CFF0121A140014201D0012010BD002010BD10B5FEF7E3FB032804D102F0B3F90120FEF71AFC10BDFEB51C4616460F46054602F00EF8F6
:4069C000A878FFF711FE02460190334639460094284600F00DF8002808D1A8780199FFF7A5FBFF2C02D138460EF0B2FAFEBD0000FFB585B005460E980C46FF2810D02B49D1
:406A0000C00009680A5840180179C0795278814201D9012601E09006860F6846038108E06078A1788006860FE0780002014368460181284601F046FD070007D021462846D5
:406A4000079A00F001FD384609B0F0BD304600F0AFFD04AE0346039002AA29460096204600F019FC3C20405D002818D0284601F029FD012813D0684600890096C0B201907D
:406A8000A878231DFF22079902F09AFA68460089039BC2B2A878079902F00AFED3E7684600890021C0B20091E9E7000060170020F8B5002600253046FFF72AFD07001DD031
:406AC00090201149704340186030447F12E0601CFBF7EAFCCCB23846E040C007C00F07D02146304602F082F821463046FFF7C0FD6D1CEDB20548018AA942E8D8761C36060D
:406B0000360ED7D0F8BD0000101F0020FC1F002010B502F09BFB0020FFF7BEFE0EF0AEFA002010BDF8B5002400F010F90123012800D10124104F00203E46203604250822C0
:406B400003E0002801D0002100E031460979002907D001290BD002290BD0114681402143CCB2401C0006000EEBD07C70F8BD1C43F7E72C43F5E70000101F002010B5FFF7DC
:406B8000D1FF10BD10B5044605F0B5FA002802D1601C00F001F810BD1CB500240094062269460194FBF79CFD002800D1122420461CBD0000F8B5044600201E4617460D463F
:406BC000002C12D0002D10D0022E0ED0032E0CD0002F0AD02179092907D0002905D013494A7F5A21095D8A4207D82089002104F090FF28460EF0ACF9FF20E18F012905D117
:406C0000002F03D0012E06D0002E04D0374301D10121E187F8BD0021E187069A2A70069A120A6A70AF70E970F8BD0000C41E002070B50E4CFBF735FA0546FEF795FA06289B
:406C400002D02078012803D02846FBF72EFA70BDFBF792FB2846FBF728FAFEF785FA0628F5D020780028E5D170BD00000E17002010B5FBF716FA0446FEF776FA012809D031
:406C8000FEF772FA022805D0FBF776FB2046FBF70CFAEEE72046FBF708FA10BD10B50B4681791943817103D08078114602F0CEFC10BD10B582798A43827102D1807802F071
:406CC000D9FC10BD30B50C4C0220A28A0B4B9978002901D0022906D11D785B78EB18282B01D9032002E0032900D101205105490DC0020143A18230BDC0112E4018170020F9
:406D000000B500F029F8002807D0012805D0032801D0042801D0002000BD012000BD014600B50020C90701D000F010F800BD014600B50020C90701D000F008F800BD000000
:406D400001480068704700001017002001480088000A704720102E400448008B410501D5042070474007800F7047000000102E400148406870470000101700207CB50446F1
:406D8000002568460570200610D5FFF7E5FF01280CD101A801F0CCFF6846007900F058FB012001F083FE0220FFF7E8FE600712D50C48017901290ED10571684601F0B8FF4F
:406DC0006846007800F078FB0220FFF7D7FE00212620FFF773F9044800680169204688477CBD00001C1700204817002010B501460A4A007800241070FFF7A8FF0128084666
:406E000003D002F045FB204610BD00F0E7F80400F9D1034801210170F5E7000018170020D01F002070B50446FFF790FF002801D00C2070BDA27B01211F48002A827801D084
:406E40000A4301E05208520082706279012A14D0C17849084900C170184D2868016820468847207901280CD06188208803F0AAF92080207904280FD015E0C2780A43C2700E
:406E8000EAE72868C168E01D8847E01D02F080FB0B48008D208006E02868C168E01D8847E01D02F075FB074920798870204602F0FDFA002070BD0000101F0020481700207D
:406EC000C41E00201817002008B50178FFF73EFF814201D10C2008BD002914D0072069460870FFF70DFF012807D10121684600F0E5F8012801D0092008BDFFF7E3FE02F0A6
:406F000009FB012011E0FFF7FBFE012806D1684601F00EFF6846007800F0CEFA02F0F0FAFFF714FF0028FBD10220FFF727FE002008BD000010B501460A4A0078002450700B
:406F4000FFF704FF0128084603D002F05FFB204610BD00F065F80400F9D1034801214170F5E7000018170020D01F002038B568460DF084FF002801D01F2038BD01210098DA
:406F8000C90201804180002505714571857107214173857302F08AFA009C202200212046FBF7B6FB25702A460021601CFBF7B0FB204602F06DFA204602F028FB00980DF01D
:406FC000C7FF062200210448FBF7A2FB02480C388560002038BD00001C170020F8B5044600250D4800950078012806D068460DF045FF002803D007250CE00C250AE0074EDD
:40700000009830602278611C401CFBF778FB3168207808702846F8BDD01F002010170020F8B5044600250D4800954078012806D068460DF023FF002803D007250CE00C2560
:407040000AE0074E009870602278611C401CFBF756FB7168207808702846F8BDD01F0020101700200346084800B5834209D8184600F03CFE002804D00089984201D1012083
:4070800000BD002000BD0000FF0E0000074A9179491C8906890E917138220A4092014907090E11430843024908407047101F0020FF0E0000C006C00E70470000F8B5074619
:4070C0000E4600240D4803E0002C01D0002500E005462979002905D0641C2406240EF3D00020F8BD0021204601F066F92E712046FFF7CCFF28813C700120F8BD301F002048
:4071000010B503F043FB0222002100F003F802F049F810BD10B5094B40074907000F090F185A595A40185043C0086421FBF7BCF9002800D1012080B210BD0000C8780100F4
:40714000F7B53D20405C88B015460C46002802D02878042802D200200BB0F0BD6946087200262046FFF73AFA012800D00126204603A938300191009023460327A17E3433AF
:407180003246206A03F01EFC02A8089900900B46019120463A4603A9243003F073FA02466846007A2870204601F0F2F81046D3E7FFB587B00C4605461078694608723D20CD
:4071C000005D1746002826D000262046FFF706FA012800D00126204603A93830019100902346A17E34333246206A03F0EBFB02A80090291D019120462B1D03A924300A9A4B
:4072000003F040FA02006846007A388002D1204601F0BEF810460BB0F0BDF0B505463C20405C89B016460C4600280CD0307869460873002806D000272046FFF7CFF901288A
